{
  "contractName": "Certificate",
  "abi": [
    {
      "inputs": [
        {
          "internalType": "address",
          "name": "_issuer",
          "type": "address"
        }
      ],
      "stateMutability": "nonpayable",
      "type": "constructor"
    },
    {
      "inputs": [
        {
          "internalType": "address",
          "name": "",
          "type": "address"
        },
        {
          "internalType": "uint256",
          "name": "",
          "type": "uint256"
        }
      ],
      "name": "certificates",
      "outputs": [
        {
          "internalType": "string",
          "name": "studentName",
          "type": "string"
        },
        {
          "internalType": "string",
          "name": "subject",
          "type": "string"
        },
        {
          "internalType": "string",
          "name": "ipfsHash",
          "type": "string"
        },
        {
          "internalType": "address",
          "name": "issuedTo",
          "type": "address"
        }
      ],
      "stateMutability": "view",
      "type": "function",
      "constant": true
    },
    {
      "inputs": [],
      "name": "issuer",
      "outputs": [
        {
          "internalType": "address",
          "name": "",
          "type": "address"
        }
      ],
      "stateMutability": "view",
      "type": "function",
      "constant": true
    },
    {
      "inputs": [
        {
          "internalType": "address",
          "name": "_student",
          "type": "address"
        },
        {
          "internalType": "string",
          "name": "_name",
          "type": "string"
        },
        {
          "internalType": "string",
          "name": "_subject",
          "type": "string"
        },
        {
          "internalType": "string",
          "name": "_ipfsHash",
          "type": "string"
        }
      ],
      "name": "issueCertificate",
      "outputs": [],
      "stateMutability": "nonpayable",
      "type": "function"
    },
    {
      "inputs": [
        {
          "internalType": "address",
          "name": "_student",
          "type": "address"
        }
      ],
      "name": "getCertificates",
      "outputs": [
        {
          "components": [
            {
              "internalType": "string",
              "name": "studentName",
              "type": "string"
            },
            {
              "internalType": "string",
              "name": "subject",
              "type": "string"
            },
            {
              "internalType": "string",
              "name": "ipfsHash",
              "type": "string"
            },
            {
              "internalType": "address",
              "name": "issuedTo",
              "type": "address"
            }
          ],
          "internalType": "struct Certificate.CertificateData[]",
          "name": "",
          "type": "tuple[]"
        }
      ],
      "stateMutability": "view",
      "type": "function",
      "constant": true
    }
  ],
  "bytecode": "0x608060405234801561001057600080fd5b50604051610fb2380380610fb28339818101604052810190610032919061008d565b806000806101000a81548173ffffffffffffffffffffffffffffffffffffffff021916908373ffffffffffffffffffffffffffffffffffffffff160217905550506100ff565b600081519050610087816100e8565b92915050565b60006020828403121561009f57600080fd5b60006100ad84828501610078565b91505092915050565b60006100c1826100c8565b9050919050565b600073ffffffffffffffffffffffffffffffffffffffff82169050919050565b6100f1816100b6565b81146100fc57600080fd5b50565b610ea48061010e6000396000f3fe608060405234801561001057600080fd5b506004361061004c5760003560e01c80631d1438481461005157806346f3141c1461006f5780638eb933ac146100a2578063f1c49c62146100be575b600080fd5b6100596100ee565b6040516100669190610ba3565b60405180910390f35b6100896004803603810190610084919061099d565b610112565b6040516100999493929190610be0565b60405180910390f35b6100bc60048036038101906100b791906108f2565b610317565b005b6100d860048036038101906100d391906108c9565b6104ea565b6040516100e59190610bbe565b60405180910390f35b60008054906101000a900473ffffffffffffffffffffffffffffffffffffffff1681565b6001602052816000526040600020818154811061012e57600080fd5b90600052602060002090600402016000915091505080600001805461015290610d9f565b80601f016020809104026020016040519081016040528092919081815260200182805461017e90610d9f565b80156101cb5780601f106101a0576101008083540402835291602001916101cb565b820191906000526020600020905b8154815290600101906020018083116101ae57829003601f168201915b5050505050908060010180546101e090610d9f565b80601f016020809104026020016040519081016040528092919081815260200182805461020c90610d9f565b80156102595780601f1061022e57610100808354040283529160200191610259565b820191906000526020600020905b81548152906001019060200180831161023c57829003601f168201915b50505050509080600201805461026e90610d9f565b80601f016020809104026020016040519081016040528092919081815260200182805461029a90610d9f565b80156102e75780601f106102bc576101008083540402835291602001916102e7565b820191906000526020600020905b8154815290600101906020018083116102ca57829003601f168201915b5050505050908060030160009054906101000a900473ffffffffffffffffffffffffffffffffffffffff16905084565b60008054906101000a900473ffffffffffffffffffffffffffffffffffffffff1673ffffffffffffffffffffffffffffffffffffffff163373ffffffffffffffffffffffffffffffffffffffff16146103a5576040517f08c379a000000000000000000000000000000000000000000000000000000000815260040161039c90610c3a565b60405180910390fd5b600160008573ffffffffffffffffffffffffffffffffffffffff1673ffffffffffffffffffffffffffffffffffffffff16815260200190815260200160002060405180608001604052808581526020018481526020018381526020018673ffffffffffffffffffffffffffffffffffffffff1681525090806001815401808255809150506001900390600052602060002090600402016000909190919091506000820151816000019080519060200190610460929190610794565b50602082015181600101908051906020019061047d929190610794565b50604082015181600201908051906020019061049a929190610794565b5060608201518160030160006101000a81548173ffffffffffffffffffffffffffffffffffffffff021916908373ffffffffffffffffffffffffffffffffffffffff160217905550505050505050565b6060600160008373ffffffffffffffffffffffffffffffffffffffff1673ffffffffffffffffffffffffffffffffffffffff168152602001908152602001600020805480602002602001604051908101604052809291908181526020016000905b82821015610789578382906000526020600020906004020160405180608001604052908160008201805461057e90610d9f565b80601f01602080910402602001604051908101604052809291908181526020018280546105aa90610d9f565b80156105f75780601f106105cc576101008083540402835291602001916105f7565b820191906000526020600020905b8154815290600101906020018083116105da57829003601f168201915b5050505050815260200160018201805461061090610d9f565b80601f016020809104026020016040519081016040528092919081815260200182805461063c90610d9f565b80156106895780601f1061065e57610100808354040283529160200191610689565b820191906000526020600020905b81548152906001019060200180831161066c57829003601f168201915b505050505081526020016002820180546106a290610d9f565b80601f01602080910402602001604051908101604052809291908181526020018280546106ce90610d9f565b801561071b5780601f106106f05761010080835404028352916020019161071b565b820191906000526020600020905b8154815290600101906020018083116106fe57829003601f168201915b505050505081526020016003820160009054906101000a900473ffffffffffffffffffffffffffffffffffffffff1673ffffffffffffffffffffffffffffffffffffffff1673ffffffffffffffffffffffffffffffffffffffff16815250508152602001906001019061054b565b505050509050919050565b8280546107a090610d9f565b90600052602060002090601f0160209004810192826107c25760008555610809565b82601f106107db57805160ff1916838001178555610809565b82800160010185558215610809579182015b828111156108085782518255916020019190600101906107ed565b5b509050610816919061081a565b5090565b5b8082111561083357600081600090555060010161081b565b5090565b600061084a61084584610c8b565b610c5a565b90508281526020810184848401111561086257600080fd5b61086d848285610d5d565b509392505050565b60008135905061088481610e40565b92915050565b600082601f83011261089b57600080fd5b81356108ab848260208601610837565b91505092915050565b6000813590506108c381610e57565b92915050565b6000602082840312156108db57600080fd5b60006108e984828501610875565b91505092915050565b6000806000806080858703121561090857600080fd5b600061091687828801610875565b945050602085013567ffffffffffffffff81111561093357600080fd5b61093f8782880161088a565b935050604085013567ffffffffffffffff81111561095c57600080fd5b6109688782880161088a565b925050606085013567ffffffffffffffff81111561098557600080fd5b6109918782880161088a565b91505092959194509250565b600080604083850312156109b057600080fd5b60006109be85828601610875565b92505060206109cf858286016108b4565b9150509250929050565b60006109e58383610b32565b905092915050565b6109f681610d21565b82525050565b610a0581610d21565b82525050565b6000610a1682610ccb565b610a208185610cee565b935083602082028501610a3285610cbb565b8060005b85811015610a6e5784840389528151610a4f85826109d9565b9450610a5a83610ce1565b925060208a01995050600181019050610a36565b50829750879550505050505092915050565b6000610a8b82610cd6565b610a958185610cff565b9350610aa5818560208601610d6c565b610aae81610e2f565b840191505092915050565b6000610ac482610cd6565b610ace8185610d10565b9350610ade818560208601610d6c565b610ae781610e2f565b840191505092915050565b6000610aff600e83610d10565b91507f4e6f7420617574686f72697a65640000000000000000000000000000000000006000830152602082019050919050565b60006080830160008301518482036000860152610b4f8282610a80565b91505060208301518482036020860152610b698282610a80565b91505060408301518482036040860152610b838282610a80565b9150506060830151610b9860608601826109ed565b508091505092915050565b6000602082019050610bb860008301846109fc565b92915050565b60006020820190508181036000830152610bd88184610a0b565b905092915050565b60006080820190508181036000830152610bfa8187610ab9565b90508181036020830152610c0e8186610ab9565b90508181036040830152610c228185610ab9565b9050610c3160608301846109fc565b95945050505050565b60006020820190508181036000830152610c5381610af2565b9050919050565b6000604051905081810181811067ffffffffffffffff82111715610c8157610c80610e00565b5b8060405250919050565b600067ffffffffffffffff821115610ca657610ca5610e00565b5b601f19601f8301169050602081019050919050565b6000819050602082019050919050565b600081519050919050565b600081519050919050565b6000602082019050919050565b600082825260208201905092915050565b600082825260208201905092915050565b600082825260208201905092915050565b6000610d2c82610d33565b9050919050565b600073ffffffffffffffffffffffffffffffffffffffff82169050919050565b6000819050919050565b82818337600083830152505050565b60005b83811015610d8a578082015181840152602081019050610d6f565b83811115610d99576000848401525b50505050565b60006002820490506001821680610db757607f821691505b60208210811415610dcb57610dca610dd1565b5b50919050565b7f4e487b7100000000000000000000000000000000000000000000000000000000600052602260045260246000fd5b7f4e487b7100000000000000000000000000000000000000000000000000000000600052604160045260246000fd5b6000601f19601f8301169050919050565b610e4981610d21565b8114610e5457600080fd5b50565b610e6081610d53565b8114610e6b57600080fd5b5056fea264697066735822122055ea60b102d948a43408d813b795cfb586f14b7ce252074bc41a8df05014935164736f6c63430008000033",
  "immutableReferences": {},
  "source": "// SPDX-License-Identifier: MIT\npragma solidity ^0.8.0;\n\ncontract Certificate {\n    address public issuer;\n\n    struct CertificateData {\n        string studentName;\n        string subject;\n        string ipfsHash;\n        address issuedTo;\n    }\n\n    mapping(address => CertificateData[]) public certificates;\n\n    modifier onlyIssuer() {\n        require(msg.sender == issuer, \"Not authorized\");\n        _;\n    }\n\n    constructor(address _issuer) {\n        issuer = _issuer;\n    }\n\n    function issueCertificate(\n        address _student,\n        string memory _name,\n        string memory _subject,\n        string memory _ipfsHash\n    ) public onlyIssuer {\n        certificates[_student].push(\n            CertificateData(_name, _subject, _ipfsHash, _student)\n        );\n    }\n\n    function getCertificates(address _student) public view returns (CertificateData[] memory) {\n        return certificates[_student];\n    }\n}\n",
  "sourcePath": "/Users/deviprasadreddyp/Desktop/cert-verification/contracts/Certificate.sol",
  "compiler": {
    "name": "solc",
    "version": "0.8.0+commit.c7dfd78e.Emscripten.clang"
  },
  "schemaVersion": "3.4.16",
  "updatedAt": "2025-04-23T15:22:52.259Z",
  "networkType": "ethereum",
  "devdoc": {
    "kind": "dev",
    "methods": {},
    "version": 1
  },
  "userdoc": {
    "kind": "user",
    "methods": {},
    "version": 1
  }
}