{
  "contractName": "Student",
  "abi": [
    {
      "anonymous": false,
      "inputs": [
        {
          "indexed": false,
          "internalType": "address",
          "name": "student",
          "type": "address"
        }
      ],
      "name": "Registered",
      "type": "event"
    },
    {
      "inputs": [
        {
          "internalType": "address",
          "name": "",
          "type": "address"
        }
      ],
      "name": "registered",
      "outputs": [
        {
          "internalType": "bool",
          "name": "",
          "type": "bool"
        }
      ],
      "stateMutability": "view",
      "type": "function",
      "constant": true
    },
    {
      "inputs": [],
      "name": "register",
      "outputs": [],
      "stateMutability": "nonpayable",
      "type": "function"
    },
    {
      "inputs": [
        {
          "internalType": "address",
          "name": "student",
          "type": "address"
        }
      ],
      "name": "isRegistered",
      "outputs": [
        {
          "internalType": "bool",
          "name": "",
          "type": "bool"
        }
      ],
      "stateMutability": "view",
      "type": "function",
      "constant": true
    }
  ],
  "bytecode": "0x608060405234801561001057600080fd5b506103cf806100206000396000f3fe608060405234801561001057600080fd5b50600436106100415760003560e01c80631aa3a00814610046578063b2dd5c0714610050578063c3c5a54714610080575b600080fd5b61004e6100b0565b005b61006a60048036038101906100659190610256565b6101cc565b60405161007791906102f8565b60405180910390f35b61009a60048036038101906100959190610256565b6101ec565b6040516100a791906102f8565b60405180910390f35b6000803373ffffffffffffffffffffffffffffffffffffffff1673ffffffffffffffffffffffffffffffffffffffff16815260200190815260200160002060009054906101000a900460ff161561013c576040517f08c379a000000000000000000000000000000000000000000000000000000000815260040161013390610313565b60405180910390fd5b60016000803373ffffffffffffffffffffffffffffffffffffffff1673ffffffffffffffffffffffffffffffffffffffff16815260200190815260200160002060006101000a81548160ff0219169083151502179055507f2d3734a8e47ac8316e500ac231c90a6e1848ca2285f40d07eaa52005e4b3a0e9336040516101c291906102dd565b60405180910390a1565b60006020528060005260406000206000915054906101000a900460ff1681565b60008060008373ffffffffffffffffffffffffffffffffffffffff1673ffffffffffffffffffffffffffffffffffffffff16815260200190815260200160002060009054906101000a900460ff169050919050565b60008135905061025081610382565b92915050565b60006020828403121561026857600080fd5b600061027684828501610241565b91505092915050565b61028881610344565b82525050565b61029781610356565b82525050565b60006102aa601283610333565b91507f416c7265616479207265676973746572656400000000000000000000000000006000830152602082019050919050565b60006020820190506102f2600083018461027f565b92915050565b600060208201905061030d600083018461028e565b92915050565b6000602082019050818103600083015261032c8161029d565b9050919050565b600082825260208201905092915050565b600061034f82610362565b9050919050565b60008115159050919050565b600073ffffffffffffffffffffffffffffffffffffffff82169050919050565b61038b81610344565b811461039657600080fd5b5056fea26469706673582212200f19a574ee578fe32ecf79aa3090c3c3087c006c168c9c9f72ba0aa1f5e1324a64736f6c63430008000033",
  "immutableReferences": {},
  "source": "// SPDX-License-Identifier: MIT\npragma solidity ^0.8.0;\n\ncontract Student {\n    mapping(address => bool) public registered;\n\n    event Registered(address student);\n\n    function register() public {\n        require(!registered[msg.sender], \"Already registered\");\n        registered[msg.sender] = true;\n        emit Registered(msg.sender);\n    }\n\n    function isRegistered(address student) public view returns (bool) {\n        return registered[student];\n    }\n}\n",
  "sourcePath": "/Users/deviprasadreddyp/Desktop/cert-verification/contracts/Student.sol",
  "compiler": {
    "name": "solc",
    "version": "0.8.0+commit.c7dfd78e.Emscripten.clang"
  },
  "schemaVersion": "3.4.16",
  "updatedAt": "2025-04-23T15:22:52.266Z",
  "networkType": "ethereum",
  "devdoc": {
    "kind": "dev",
    "methods": {},
    "version": 1
  },
  "userdoc": {
    "kind": "user",
    "methods": {},
    "version": 1
  }
}