{
  "contractName": "Verifier",
  "abi": [
    {
      "inputs": [],
      "stateMutability": "nonpayable",
      "type": "constructor"
    },
    {
      "inputs": [],
      "name": "admin",
      "outputs": [
        {
          "internalType": "address",
          "name": "",
          "type": "address"
        }
      ],
      "stateMutability": "view",
      "type": "function",
      "constant": true
    },
    {
      "inputs": [],
      "name": "certificateContract",
      "outputs": [
        {
          "internalType": "contract Certificate",
          "name": "",
          "type": "address"
        }
      ],
      "stateMutability": "view",
      "type": "function",
      "constant": true
    },
    {
      "inputs": [],
      "name": "studentContract",
      "outputs": [
        {
          "internalType": "contract Student",
          "name": "",
          "type": "address"
        }
      ],
      "stateMutability": "view",
      "type": "function",
      "constant": true
    },
    {
      "inputs": [
        {
          "internalType": "address",
          "name": "_certificate",
          "type": "address"
        },
        {
          "internalType": "address",
          "name": "_student",
          "type": "address"
        }
      ],
      "name": "setContracts",
      "outputs": [],
      "stateMutability": "nonpayable",
      "type": "function"
    },
    {
      "inputs": [
        {
          "internalType": "address",
          "name": "student",
          "type": "address"
        },
        {
          "internalType": "string",
          "name": "name",
          "type": "string"
        },
        {
          "internalType": "string",
          "name": "subject",
          "type": "string"
        },
        {
          "internalType": "string",
          "name": "ipfsHash",
          "type": "string"
        }
      ],
      "name": "issueCertificateToStudent",
      "outputs": [],
      "stateMutability": "nonpayable",
      "type": "function"
    }
  ],
  "bytecode": "0x608060405234801561001057600080fd5b50336000806101000a81548173ffffffffffffffffffffffffffffffffffffffff021916908373ffffffffffffffffffffffffffffffffffffffff160217905550610951806100606000396000f3fe608060405234801561001057600080fd5b50600436106100575760003560e01c80630c571a091461005c578063779c7ac31461007a578063d8952a4914610098578063dfdf5ed1146100b4578063f851a440146100d0575b600080fd5b6100646100ee565b604051610071919061070d565b60405180910390f35b610082610114565b60405161008f91906106f2565b60405180910390f35b6100b260048036038101906100ad9190610487565b61013a565b005b6100ce60048036038101906100c991906104c3565b61024e565b005b6100d86103d1565b6040516100e5919061067d565b60405180910390f35b600260009054906101000a900473ffffffffffffffffffffffffffffffffffffffff1681565b600160009054906101000a900473ffffffffffffffffffffffffffffffffffffffff1681565b60008054906101000a900473ffffffffffffffffffffffffffffffffffffffff1673ffffffffffffffffffffffffffffffffffffffff163373ffffffffffffffffffffffffffffffffffffffff16146101c8576040517f08c379a00000000000000000000000000000000000000000000000000000000081526004016101bf90610748565b60405180910390fd5b81600160006101000a81548173ffffffffffffffffffffffffffffffffffffffff021916908373ffffffffffffffffffffffffffffffffffffffff16021790555080600260006101000a81548173ffffffffffffffffffffffffffffffffffffffff021916908373ffffffffffffffffffffffffffffffffffffffff1602179055505050565b600260009054906101000a900473ffffffffffffffffffffffffffffffffffffffff1673ffffffffffffffffffffffffffffffffffffffff1663c3c5a547856040518263ffffffff1660e01b81526004016102a9919061067d565b60206040518083038186803b1580156102c157600080fd5b505afa1580156102d5573d6000803e3d6000fd5b505050506040513d601f19601f820116820180604052508101906102f9919061056e565b610338576040517f08c379a000000000000000000000000000000000000000000000000000000000815260040161032f90610728565b60405180910390fd5b600160009054906101000a900473ffffffffffffffffffffffffffffffffffffffff1673ffffffffffffffffffffffffffffffffffffffff16638eb933ac858585856040518563ffffffff1660e01b81526004016103999493929190610698565b600060405180830381600087803b1580156103b357600080fd5b505af11580156103c7573d6000803e3d6000fd5b5050505050505050565b60008054906101000a900473ffffffffffffffffffffffffffffffffffffffff1681565b600061040861040384610799565b610768565b90508281526020810184848401111561042057600080fd5b61042b84828561086b565b509392505050565b600081359050610442816108ed565b92915050565b60008151905061045781610904565b92915050565b600082601f83011261046e57600080fd5b813561047e8482602086016103f5565b91505092915050565b6000806040838503121561049a57600080fd5b60006104a885828601610433565b92505060206104b985828601610433565b9150509250929050565b600080600080608085870312156104d957600080fd5b60006104e787828801610433565b945050602085013567ffffffffffffffff81111561050457600080fd5b6105108782880161045d565b935050604085013567ffffffffffffffff81111561052d57600080fd5b6105398782880161045d565b925050606085013567ffffffffffffffff81111561055657600080fd5b6105628782880161045d565b91505092959194509250565b60006020828403121561058057600080fd5b600061058e84828501610448565b91505092915050565b6105a0816107e5565b82525050565b6105af81610823565b82525050565b6105be81610847565b82525050565b60006105cf826107c9565b6105d981856107d4565b93506105e981856020860161087a565b6105f2816108dc565b840191505092915050565b600061060a6016836107d4565b91507f53747564656e74206e6f742072656769737465726564000000000000000000006000830152602082019050919050565b600061064a601c836107d4565b91507f4f6e6c792061646d696e2063616e2073657420636f6e747261637473000000006000830152602082019050919050565b60006020820190506106926000830184610597565b92915050565b60006080820190506106ad6000830187610597565b81810360208301526106bf81866105c4565b905081810360408301526106d381856105c4565b905081810360608301526106e781846105c4565b905095945050505050565b600060208201905061070760008301846105a6565b92915050565b600060208201905061072260008301846105b5565b92915050565b60006020820190508181036000830152610741816105fd565b9050919050565b600060208201905081810360008301526107618161063d565b9050919050565b6000604051905081810181811067ffffffffffffffff8211171561078f5761078e6108ad565b5b8060405250919050565b600067ffffffffffffffff8211156107b4576107b36108ad565b5b601f19601f8301169050602081019050919050565b600081519050919050565b600082825260208201905092915050565b60006107f082610803565b9050919050565b60008115159050919050565b600073ffffffffffffffffffffffffffffffffffffffff82169050919050565b600061082e82610835565b9050919050565b600061084082610803565b9050919050565b600061085282610859565b9050919050565b600061086482610803565b9050919050565b82818337600083830152505050565b60005b8381101561089857808201518184015260208101905061087d565b838111156108a7576000848401525b50505050565b7f4e487b7100000000000000000000000000000000000000000000000000000000600052604160045260246000fd5b6000601f19601f8301169050919050565b6108f6816107e5565b811461090157600080fd5b50565b61090d816107f7565b811461091857600080fd5b5056fea26469706673582212206f07004b44500b1d11f2e70ea023ffb5af02028d031fe7ecda598aa69187983664736f6c63430008000033",
  "immutableReferences": {},
  "source": "// SPDX-License-Identifier: MIT\npragma solidity ^0.8.0;\n\nimport \"./Certificate.sol\";\nimport \"./Student.sol\";\n\ncontract Verifier {\n    address public admin;\n    Certificate public certificateContract;\n    Student public studentContract;\n\n    constructor() {\n        admin = msg.sender;\n    }\n\n    function setContracts(address _certificate, address _student) public {\n        require(msg.sender == admin, \"Only admin can set contracts\");\n        certificateContract = Certificate(_certificate);\n        studentContract = Student(_student);\n    }\n\n    function issueCertificateToStudent(\n        address student,\n        string memory name,\n        string memory subject,\n        string memory ipfsHash\n    ) public {\n        require(studentContract.isRegistered(student), \"Student not registered\");\n        certificateContract.issueCertificate(student, name, subject, ipfsHash);\n    }\n}\n",
  "sourcePath": "/Users/deviprasadreddyp/Desktop/cert-verification/contracts/Verifier.sol",
  "compiler": {
    "name": "solc",
    "version": "0.8.0+commit.c7dfd78e.Emscripten.clang"
  },
  "schemaVersion": "3.4.16",
  "updatedAt": "2025-04-23T15:22:52.264Z",
  "networkType": "ethereum",
  "devdoc": {
    "kind": "dev",
    "methods": {},
    "version": 1
  },
  "userdoc": {
    "kind": "user",
    "methods": {},
    "version": 1
  }
}