{
  "contractName": "Certificate",
  "abi": [
    {
      "inputs": [
        {
          "internalType": "address",
          "name": "",
          "type": "address"
        },
        {
          "internalType": "uint256",
          "name": "",
          "type": "uint256"
        }
      ],
      "name": "issuedCertificates",
      "outputs": [
        {
          "internalType": "string",
          "name": "studentName",
          "type": "string"
        },
        {
          "internalType": "string",
          "name": "subject",
          "type": "string"
        },
        {
          "internalType": "string",
          "name": "ipfsHash",
          "type": "string"
        }
      ],
      "stateMutability": "view",
      "type": "function",
      "constant": true
    },
    {
      "inputs": [
        {
          "internalType": "address",
          "name": "student",
          "type": "address"
        },
        {
          "internalType": "string",
          "name": "name",
          "type": "string"
        },
        {
          "internalType": "string",
          "name": "subject",
          "type": "string"
        },
        {
          "internalType": "string",
          "name": "hash",
          "type": "string"
        }
      ],
      "name": "addCertificate",
      "outputs": [],
      "stateMutability": "nonpayable",
      "type": "function"
    },
    {
      "inputs": [
        {
          "internalType": "address",
          "name": "student",
          "type": "address"
        }
      ],
      "name": "getCertificates",
      "outputs": [
        {
          "components": [
            {
              "internalType": "string",
              "name": "studentName",
              "type": "string"
            },
            {
              "internalType": "string",
              "name": "subject",
              "type": "string"
            },
            {
              "internalType": "string",
              "name": "ipfsHash",
              "type": "string"
            }
          ],
          "internalType": "struct Certificate.Cert[]",
          "name": "",
          "type": "tuple[]"
        }
      ],
      "stateMutability": "view",
      "type": "function",
      "constant": true
    }
  ],
  "bytecode": "0x608060405234801561001057600080fd5b50610c2d806100206000396000f3fe608060405234801561001057600080fd5b50600436106100415760003560e01c8063a038cffc14610046578063c239be1e14610062578063f1c49c6214610094575b600080fd5b610060600480360381019061005b9190610735565b6100c4565b005b61007c600480360381019061007791906107e0565b6101a5565b60405161008b93929190610997565b60405180910390f35b6100ae60048036038101906100a9919061070c565b610384565b6040516100bb9190610975565b60405180910390f35b6000808573ffffffffffffffffffffffffffffffffffffffff1673ffffffffffffffffffffffffffffffffffffffff168152602001908152602001600020604051806060016040528085815260200184815260200183815250908060018154018082558091505060019003906000526020600020906003020160009091909190915060008201518160000190805190602001906101629291906105d7565b50602082015181600101908051906020019061017f9291906105d7565b50604082015181600201908051906020019061019c9291906105d7565b50505050505050565b600060205281600052604060002081815481106101c157600080fd5b9060005260206000209060030201600091509150508060000180546101e590610b28565b80601f016020809104026020016040519081016040528092919081815260200182805461021190610b28565b801561025e5780601f106102335761010080835404028352916020019161025e565b820191906000526020600020905b81548152906001019060200180831161024157829003601f168201915b50505050509080600101805461027390610b28565b80601f016020809104026020016040519081016040528092919081815260200182805461029f90610b28565b80156102ec5780601f106102c1576101008083540402835291602001916102ec565b820191906000526020600020905b8154815290600101906020018083116102cf57829003601f168201915b50505050509080600201805461030190610b28565b80601f016020809104026020016040519081016040528092919081815260200182805461032d90610b28565b801561037a5780601f1061034f5761010080835404028352916020019161037a565b820191906000526020600020905b81548152906001019060200180831161035d57829003601f168201915b5050505050905083565b60606000808373ffffffffffffffffffffffffffffffffffffffff1673ffffffffffffffffffffffffffffffffffffffff168152602001908152602001600020805480602002602001604051908101604052809291908181526020016000905b828210156105cc578382906000526020600020906003020160405180606001604052908160008201805461041790610b28565b80601f016020809104026020016040519081016040528092919081815260200182805461044390610b28565b80156104905780601f1061046557610100808354040283529160200191610490565b820191906000526020600020905b81548152906001019060200180831161047357829003601f168201915b505050505081526020016001820180546104a990610b28565b80601f01602080910402602001604051908101604052809291908181526020018280546104d590610b28565b80156105225780601f106104f757610100808354040283529160200191610522565b820191906000526020600020905b81548152906001019060200180831161050557829003601f168201915b5050505050815260200160028201805461053b90610b28565b80601f016020809104026020016040519081016040528092919081815260200182805461056790610b28565b80156105b45780601f10610589576101008083540402835291602001916105b4565b820191906000526020600020905b81548152906001019060200180831161059757829003601f168201915b505050505081525050815260200190600101906103e4565b505050509050919050565b8280546105e390610b28565b90600052602060002090601f016020900481019282610605576000855561064c565b82601f1061061e57805160ff191683800117855561064c565b8280016001018555821561064c579182015b8281111561064b578251825591602001919060010190610630565b5b509050610659919061065d565b5090565b5b8082111561067657600081600090555060010161065e565b5090565b600061068d61068884610a14565b6109e3565b9050828152602081018484840111156106a557600080fd5b6106b0848285610ae6565b509392505050565b6000813590506106c781610bc9565b92915050565b600082601f8301126106de57600080fd5b81356106ee84826020860161067a565b91505092915050565b60008135905061070681610be0565b92915050565b60006020828403121561071e57600080fd5b600061072c848285016106b8565b91505092915050565b6000806000806080858703121561074b57600080fd5b6000610759878288016106b8565b945050602085013567ffffffffffffffff81111561077657600080fd5b610782878288016106cd565b935050604085013567ffffffffffffffff81111561079f57600080fd5b6107ab878288016106cd565b925050606085013567ffffffffffffffff8111156107c857600080fd5b6107d4878288016106cd565b91505092959194509250565b600080604083850312156107f357600080fd5b6000610801858286016106b8565b9250506020610812858286016106f7565b9150509250929050565b60006108288383610917565b905092915050565b600061083b82610a54565b6108458185610a77565b93508360208202850161085785610a44565b8060005b858110156108935784840389528151610874858261081c565b945061087f83610a6a565b925060208a0199505060018101905061085b565b50829750879550505050505092915050565b60006108b082610a5f565b6108ba8185610a88565b93506108ca818560208601610af5565b6108d381610bb8565b840191505092915050565b60006108e982610a5f565b6108f38185610a99565b9350610903818560208601610af5565b61090c81610bb8565b840191505092915050565b6000606083016000830151848203600086015261093482826108a5565b9150506020830151848203602086015261094e82826108a5565b9150506040830151848203604086015261096882826108a5565b9150508091505092915050565b6000602082019050818103600083015261098f8184610830565b905092915050565b600060608201905081810360008301526109b181866108de565b905081810360208301526109c581856108de565b905081810360408301526109d981846108de565b9050949350505050565b6000604051905081810181811067ffffffffffffffff82111715610a0a57610a09610b89565b5b8060405250919050565b600067ffffffffffffffff821115610a2f57610a2e610b89565b5b601f19601f8301169050602081019050919050565b6000819050602082019050919050565b600081519050919050565b600081519050919050565b6000602082019050919050565b600082825260208201905092915050565b600082825260208201905092915050565b600082825260208201905092915050565b6000610ab582610abc565b9050919050565b600073ffffffffffffffffffffffffffffffffffffffff82169050919050565b6000819050919050565b82818337600083830152505050565b60005b83811015610b13578082015181840152602081019050610af8565b83811115610b22576000848401525b50505050565b60006002820490506001821680610b4057607f821691505b60208210811415610b5457610b53610b5a565b5b50919050565b7f4e487b7100000000000000000000000000000000000000000000000000000000600052602260045260246000fd5b7f4e487b7100000000000000000000000000000000000000000000000000000000600052604160045260246000fd5b6000601f19601f8301169050919050565b610bd281610aaa565b8114610bdd57600080fd5b50565b610be981610adc565b8114610bf457600080fd5b5056fea2646970667358221220c0113461a0d9a646947c2d4390fd864674d1177259287e076a8acb9cd5edb43964736f6c63430008000033",
  "immutableReferences": {},
  "source": "// SPDX-License-Identifier: MIT\npragma solidity ^0.8.0;\n\ncontract Certificate {\n    struct Cert {\n        string studentName;\n        string subject;\n        string ipfsHash;\n    }\n\n    mapping(address => Cert[]) public issuedCertificates;\n\n    function addCertificate(address student, string memory name, string memory subject, string memory hash) public {\n        issuedCertificates[student].push(Cert(name, subject, hash));\n    }\n\n    function getCertificates(address student) public view returns (Cert[] memory) {\n        return issuedCertificates[student];\n    }\n}\n",
  "sourcePath": "/Users/deviprasadreddyp/Desktop/cert-verification/contracts/Certificate.sol",
  "compiler": {
    "name": "solc",
    "version": "0.8.0+commit.c7dfd78e.Emscripten.clang"
  },
  "schemaVersion": "3.4.16",
  "updatedAt": "2025-04-23T16:36:14.091Z",
  "networkType": "ethereum",
  "devdoc": {
    "kind": "dev",
    "methods": {},
    "version": 1
  },
  "userdoc": {
    "kind": "user",
    "methods": {},
    "version": 1
  }
}