{
  "contractName": "Student",
  "abi": [
    {
      "inputs": [
        {
          "internalType": "uint256",
          "name": "",
          "type": "uint256"
        }
      ],
      "name": "certificateRequests",
      "outputs": [
        {
          "internalType": "address",
          "name": "student",
          "type": "address"
        },
        {
          "internalType": "string",
          "name": "studentName",
          "type": "string"
        },
        {
          "internalType": "string",
          "name": "subject",
          "type": "string"
        },
        {
          "internalType": "string",
          "name": "ipfsHash",
          "type": "string"
        },
        {
          "internalType": "bool",
          "name": "isApproved",
          "type": "bool"
        }
      ],
      "stateMutability": "view",
      "type": "function",
      "constant": true
    },
    {
      "inputs": [
        {
          "internalType": "address",
          "name": "",
          "type": "address"
        }
      ],
      "name": "students",
      "outputs": [
        {
          "internalType": "bool",
          "name": "isRegistered",
          "type": "bool"
        }
      ],
      "stateMutability": "view",
      "type": "function",
      "constant": true
    },
    {
      "inputs": [],
      "name": "register",
      "outputs": [],
      "stateMutability": "nonpayable",
      "type": "function"
    },
    {
      "inputs": [
        {
          "internalType": "string",
          "name": "name",
          "type": "string"
        },
        {
          "internalType": "string",
          "name": "subject",
          "type": "string"
        },
        {
          "internalType": "string",
          "name": "ipfsHash",
          "type": "string"
        }
      ],
      "name": "requestCertificate",
      "outputs": [],
      "stateMutability": "nonpayable",
      "type": "function"
    },
    {
      "inputs": [],
      "name": "getAllRequests",
      "outputs": [
        {
          "components": [
            {
              "internalType": "address",
              "name": "student",
              "type": "address"
            },
            {
              "internalType": "string",
              "name": "studentName",
              "type": "string"
            },
            {
              "internalType": "string",
              "name": "subject",
              "type": "string"
            },
            {
              "internalType": "string",
              "name": "ipfsHash",
              "type": "string"
            },
            {
              "internalType": "bool",
              "name": "isApproved",
              "type": "bool"
            }
          ],
          "internalType": "struct Student.CertificateRequest[]",
          "name": "",
          "type": "tuple[]"
        }
      ],
      "stateMutability": "view",
      "type": "function",
      "constant": true
    },
    {
      "inputs": [
        {
          "internalType": "uint256",
          "name": "index",
          "type": "uint256"
        }
      ],
      "name": "approveRequest",
      "outputs": [],
      "stateMutability": "nonpayable",
      "type": "function"
    },
    {
      "inputs": [
        {
          "internalType": "address",
          "name": "student",
          "type": "address"
        }
      ],
      "name": "getApprovedRequests",
      "outputs": [
        {
          "components": [
            {
              "internalType": "address",
              "name": "student",
              "type": "address"
            },
            {
              "internalType": "string",
              "name": "studentName",
              "type": "string"
            },
            {
              "internalType": "string",
              "name": "subject",
              "type": "string"
            },
            {
              "internalType": "string",
              "name": "ipfsHash",
              "type": "string"
            },
            {
              "internalType": "bool",
              "name": "isApproved",
              "type": "bool"
            }
          ],
          "internalType": "struct Student.CertificateRequest[]",
          "name": "",
          "type": "tuple[]"
        }
      ],
      "stateMutability": "view",
      "type": "function",
      "constant": true
    }
  ],
  "bytecode": "0x608060405234801561001057600080fd5b50611716806100206000396000f3fe608060405234801561001057600080fd5b506004361061007d5760003560e01c806393255d5b1161005b57806393255d5b146100f0578063a6c807a91461010c578063d7d1bbdb1461013c578063fb1a002a146101585761007d565b80631aa3a00814610082578063517aea2a1461008c5780636332a4ea146100bc575b600080fd5b61008a610176565b005b6100a660048036038101906100a1919061103f565b6101eb565b6040516100b391906113cb565b60405180910390f35b6100d660048036038101906100d191906110ff565b61079c565b6040516100e7959493929190611363565b60405180910390f35b61010a60048036038101906101059190611068565b6109a7565b005b6101266004803603810190610121919061103f565b610b65565b60405161013391906113ed565b60405180910390f35b610156600480360381019061015191906110ff565b610b90565b005b610160610c3d565b60405161016d91906113cb565b60405180910390f35b6040518060200160405280600115158152506000803373ffffffffffffffffffffffffffffffffffffffff1673ffffffffffffffffffffffffffffffffffffffff16815260200190815260200160002060008201518160000160006101000a81548160ff021916908315150217905550905050565b60606000805b600180549050811015610320578373ffffffffffffffffffffffffffffffffffffffff166001828154811061024f577f4e487b7100000000000000000000000000000000000000000000000000000000600052603260045260246000fd5b906000526020600020906005020160000160009054906101000a900473ffffffffffffffffffffffffffffffffffffffff1673ffffffffffffffffffffffffffffffffffffffff161480156102f95750600181815481106102d9577f4e487b7100000000000000000000000000000000000000000000000000000000600052603260045260246000fd5b906000526020600020906005020160040160009054906101000a900460ff165b1561030d578180610309906115cb565b9250505b8080610318906115cb565b9150506101f1565b5060008167ffffffffffffffff811115610363577f4e487b7100000000000000000000000000000000000000000000000000000000600052604160045260246000fd5b60405190808252806020026020018201604052801561039c57816020015b610389610ec3565b8152602001906001900390816103815790505b5090506000805b600180549050811015610790578573ffffffffffffffffffffffffffffffffffffffff1660018281548110610401577f4e487b7100000000000000000000000000000000000000000000000000000000600052603260045260246000fd5b906000526020600020906005020160000160009054906101000a900473ffffffffffffffffffffffffffffffffffffffff1673ffffffffffffffffffffffffffffffffffffffff161480156104ab57506001818154811061048b577f4e487b7100000000000000000000000000000000000000000000000000000000600052603260045260246000fd5b906000526020600020906005020160040160009054906101000a900460ff165b1561077d57600181815481106104ea577f4e487b7100000000000000000000000000000000000000000000000000000000600052603260045260246000fd5b90600052602060002090600502016040518060a00160405290816000820160009054906101000a900473ffffffffffffffffffffffffffffffffffffffff1673ffffffffffffffffffffffffffffffffffffffff1673ffffffffffffffffffffffffffffffffffffffff16815260200160018201805461056990611599565b80601f016020809104026020016040519081016040528092919081815260200182805461059590611599565b80156105e25780601f106105b7576101008083540402835291602001916105e2565b820191906000526020600020905b8154815290600101906020018083116105c557829003601f168201915b505050505081526020016002820180546105fb90611599565b80601f016020809104026020016040519081016040528092919081815260200182805461062790611599565b80156106745780601f1061064957610100808354040283529160200191610674565b820191906000526020600020905b81548152906001019060200180831161065757829003601f168201915b5050505050815260200160038201805461068d90611599565b80601f01602080910402602001604051908101604052809291908181526020018280546106b990611599565b80156107065780601f106106db57610100808354040283529160200191610706565b820191906000526020600020905b8154815290600101906020018083116106e957829003601f168201915b505050505081526020016004820160009054906101000a900460ff161515151581525050838381518110610763577f4e487b7100000000000000000000000000000000000000000000000000000000600052603260045260246000fd5b60200260200101819052508180610779906115cb565b9250505b8080610788906115cb565b9150506103a3565b50819350505050919050565b600181815481106107ac57600080fd5b90600052602060002090600502016000915090508060000160009054906101000a900473ffffffffffffffffffffffffffffffffffffffff16908060010180546107f590611599565b80601f016020809104026020016040519081016040528092919081815260200182805461082190611599565b801561086e5780601f106108435761010080835404028352916020019161086e565b820191906000526020600020905b81548152906001019060200180831161085157829003601f168201915b50505050509080600201805461088390611599565b80601f01602080910402602001604051908101604052809291908181526020018280546108af90611599565b80156108fc5780601f106108d1576101008083540402835291602001916108fc565b820191906000526020600020905b8154815290600101906020018083116108df57829003601f168201915b50505050509080600301805461091190611599565b80601f016020809104026020016040519081016040528092919081815260200182805461093d90611599565b801561098a5780601f1061095f5761010080835404028352916020019161098a565b820191906000526020600020905b81548152906001019060200180831161096d57829003601f168201915b5050505050908060040160009054906101000a900460ff16905085565b6000803373ffffffffffffffffffffffffffffffffffffffff1673ffffffffffffffffffffffffffffffffffffffff16815260200190815260200160002060000160009054906101000a900460ff16610a35576040517f08c379a0000000000000000000000000000000000000000000000000000000008152600401610a2c90611428565b60405180910390fd5b60016040518060a001604052803373ffffffffffffffffffffffffffffffffffffffff16815260200185815260200184815260200183815260200160001515815250908060018154018082558091505060019003906000526020600020906005020160009091909190915060008201518160000160006101000a81548173ffffffffffffffffffffffffffffffffffffffff021916908373ffffffffffffffffffffffffffffffffffffffff1602179055506020820151816001019080519060200190610b03929190610f0a565b506040820151816002019080519060200190610b20929190610f0a565b506060820151816003019080519060200190610b3d929190610f0a565b5060808201518160040160006101000a81548160ff0219169083151502179055505050505050565b60006020528060005260406000206000915090508060000160009054906101000a900460ff16905081565b6001805490508110610bd7576040517f08c379a0000000000000000000000000000000000000000000000000000000008152600401610bce90611408565b60405180910390fd5b6001808281548110610c12577f4e487b7100000000000000000000000000000000000000000000000000000000600052603260045260246000fd5b906000526020600020906005020160040160006101000a81548160ff02191690831515021790555050565b60606001805480602002602001604051908101604052809291908181526020016000905b82821015610eba57838290600052602060002090600502016040518060a00160405290816000820160009054906101000a900473ffffffffffffffffffffffffffffffffffffffff1673ffffffffffffffffffffffffffffffffffffffff1673ffffffffffffffffffffffffffffffffffffffff168152602001600182018054610cea90611599565b80601f0160208091040260200160405190810160405280929190818152602001828054610d1690611599565b8015610d635780601f10610d3857610100808354040283529160200191610d63565b820191906000526020600020905b815481529060010190602001808311610d4657829003601f168201915b50505050508152602001600282018054610d7c90611599565b80601f0160208091040260200160405190810160405280929190818152602001828054610da890611599565b8015610df55780601f10610dca57610100808354040283529160200191610df5565b820191906000526020600020905b815481529060010190602001808311610dd857829003601f168201915b50505050508152602001600382018054610e0e90611599565b80601f0160208091040260200160405190810160405280929190818152602001828054610e3a90611599565b8015610e875780601f10610e5c57610100808354040283529160200191610e87565b820191906000526020600020905b815481529060010190602001808311610e6a57829003601f168201915b505050505081526020016004820160009054906101000a900460ff16151515158152505081526020019060010190610c61565b50505050905090565b6040518060a00160405280600073ffffffffffffffffffffffffffffffffffffffff1681526020016060815260200160608152602001606081526020016000151581525090565b828054610f1690611599565b90600052602060002090601f016020900481019282610f385760008555610f7f565b82601f10610f5157805160ff1916838001178555610f7f565b82800160010185558215610f7f579182015b82811115610f7e578251825591602001919060010190610f63565b5b509050610f8c9190610f90565b5090565b5b80821115610fa9576000816000905550600101610f91565b5090565b6000610fc0610fbb84611479565b611448565b905082815260208101848484011115610fd857600080fd5b610fe3848285611557565b509392505050565b600081359050610ffa816116b2565b92915050565b600082601f83011261101157600080fd5b8135611021848260208601610fad565b91505092915050565b600081359050611039816116c9565b92915050565b60006020828403121561105157600080fd5b600061105f84828501610feb565b91505092915050565b60008060006060848603121561107d57600080fd5b600084013567ffffffffffffffff81111561109757600080fd5b6110a386828701611000565b935050602084013567ffffffffffffffff8111156110c057600080fd5b6110cc86828701611000565b925050604084013567ffffffffffffffff8111156110e957600080fd5b6110f586828701611000565b9150509250925092565b60006020828403121561111157600080fd5b600061111f8482850161102a565b91505092915050565b600061113483836112df565b905092915050565b6111458161150f565b82525050565b6111548161150f565b82525050565b6000611165826114b9565b61116f81856114dc565b935083602082028501611181856114a9565b8060005b858110156111bd578484038952815161119e8582611128565b94506111a9836114cf565b925060208a01995050600181019050611185565b50829750879550505050505092915050565b6111d881611521565b82525050565b6111e781611521565b82525050565b60006111f8826114c4565b61120281856114ed565b9350611212818560208601611566565b61121b816116a1565b840191505092915050565b6000611231826114c4565b61123b81856114fe565b935061124b818560208601611566565b611254816116a1565b840191505092915050565b600061126c6011836114fe565b91507f52657175657374206e6f7420666f756e640000000000000000000000000000006000830152602082019050919050565b60006112ac6017836114fe565b91507f596f75206d7573742072656769737465722066697273740000000000000000006000830152602082019050919050565b600060a0830160008301516112f7600086018261113c565b506020830151848203602086015261130f82826111ed565b9150506040830151848203604086015261132982826111ed565b9150506060830151848203606086015261134382826111ed565b915050608083015161135860808601826111cf565b508091505092915050565b600060a082019050611378600083018861114b565b818103602083015261138a8187611226565b9050818103604083015261139e8186611226565b905081810360608301526113b28185611226565b90506113c160808301846111de565b9695505050505050565b600060208201905081810360008301526113e5818461115a565b905092915050565b600060208201905061140260008301846111de565b92915050565b600060208201905081810360008301526114218161125f565b9050919050565b600060208201905081810360008301526114418161129f565b9050919050565b6000604051905081810181811067ffffffffffffffff8211171561146f5761146e611672565b5b8060405250919050565b600067ffffffffffffffff82111561149457611493611672565b5b601f19601f8301169050602081019050919050565b6000819050602082019050919050565b600081519050919050565b600081519050919050565b6000602082019050919050565b600082825260208201905092915050565b600082825260208201905092915050565b600082825260208201905092915050565b600061151a8261152d565b9050919050565b60008115159050919050565b600073ffffffffffffffffffffffffffffffffffffffff82169050919050565b6000819050919050565b82818337600083830152505050565b60005b83811015611584578082015181840152602081019050611569565b83811115611593576000848401525b50505050565b600060028204905060018216806115b157607f821691505b602082108114156115c5576115c4611643565b5b50919050565b60006115d68261154d565b91507fffffffffffffffffffffffffffffffffffffffffffffffffffffffffffffffff82141561160957611608611614565b5b600182019050919050565b7f4e487b7100000000000000000000000000000000000000000000000000000000600052601160045260246000fd5b7f4e487b7100000000000000000000000000000000000000000000000000000000600052602260045260246000fd5b7f4e487b7100000000000000000000000000000000000000000000000000000000600052604160045260246000fd5b6000601f19601f8301169050919050565b6116bb8161150f565b81146116c657600080fd5b50565b6116d28161154d565b81146116dd57600080fd5b5056fea2646970667358221220522c7b82814d1067bf3b035f9cdf5a590075e4d088c7be9c632523afdf1ef1d964736f6c63430008000033",
  "immutableReferences": {},
  "source": "// SPDX-License-Identifier: MIT\npragma solidity ^0.8.0;\n\ncontract Student {\n    struct CertificateRequest {\n        address student;\n        string studentName;\n        string subject;\n        string ipfsHash;\n        bool isApproved;\n    }\n\n    struct Info {\n        bool isRegistered;\n    }\n\n    mapping(address => Info) public students;\n    CertificateRequest[] public certificateRequests;\n\n    function register() public {\n        students[msg.sender] = Info(true);\n    }\n\n    function requestCertificate(string memory name, string memory subject, string memory ipfsHash) public {\n        require(students[msg.sender].isRegistered, \"You must register first\");\n        certificateRequests.push(CertificateRequest(msg.sender, name, subject, ipfsHash, false)); // Default is not approved\n    }\n\n    function getAllRequests() public view returns (CertificateRequest[] memory) {\n        return certificateRequests;\n    }\n\n    // Function to approve a request\n    function approveRequest(uint index) public {\n        require(index < certificateRequests.length, \"Request not found\");\n        certificateRequests[index].isApproved = true;\n    }\n\n    // New function to get the student's approved requests\n    function getApprovedRequests(address student) public view returns (CertificateRequest[] memory) {\n        uint count = 0;\n        for (uint i = 0; i < certificateRequests.length; i++) {\n            if (certificateRequests[i].student == student && certificateRequests[i].isApproved) {\n                count++;\n            }\n        }\n\n        CertificateRequest[] memory approvedRequests = new CertificateRequest[](count);\n        uint j = 0;\n        for (uint i = 0; i < certificateRequests.length; i++) {\n            if (certificateRequests[i].student == student && certificateRequests[i].isApproved) {\n                approvedRequests[j] = certificateRequests[i];\n                j++;\n            }\n        }\n        return approvedRequests;\n    }\n}\n",
  "sourcePath": "/Users/deviprasadreddyp/Desktop/cert-verification/contracts/Student.sol",
  "compiler": {
    "name": "solc",
    "version": "0.8.0+commit.c7dfd78e.Emscripten.clang"
  },
  "schemaVersion": "3.4.16",
  "updatedAt": "2025-04-23T16:36:14.094Z",
  "networkType": "ethereum",
  "devdoc": {
    "kind": "dev",
    "methods": {},
    "version": 1
  },
  "userdoc": {
    "kind": "user",
    "methods": {},
    "version": 1
  }
}