{
  "contractName": "Verifier",
  "abi": [
    {
      "inputs": [
        {
          "internalType": "address",
          "name": "_certAddress",
          "type": "address"
        },
        {
          "internalType": "address",
          "name": "_studentAddress",
          "type": "address"
        }
      ],
      "stateMutability": "nonpayable",
      "type": "constructor"
    },
    {
      "inputs": [],
      "name": "certificateContract",
      "outputs": [
        {
          "internalType": "contract Certificate",
          "name": "",
          "type": "address"
        }
      ],
      "stateMutability": "view",
      "type": "function",
      "constant": true
    },
    {
      "inputs": [],
      "name": "studentContract",
      "outputs": [
        {
          "internalType": "contract Student",
          "name": "",
          "type": "address"
        }
      ],
      "stateMutability": "view",
      "type": "function",
      "constant": true
    },
    {
      "inputs": [
        {
          "internalType": "address",
          "name": "student",
          "type": "address"
        },
        {
          "internalType": "string",
          "name": "name",
          "type": "string"
        },
        {
          "internalType": "string",
          "name": "subject",
          "type": "string"
        },
        {
          "internalType": "string",
          "name": "hash",
          "type": "string"
        }
      ],
      "name": "issueCertificateToStudent",
      "outputs": [],
      "stateMutability": "nonpayable",
      "type": "function"
    },
    {
      "inputs": [],
      "name": "getAllRequests",
      "outputs": [
        {
          "components": [
            {
              "internalType": "address",
              "name": "student",
              "type": "address"
            },
            {
              "internalType": "string",
              "name": "studentName",
              "type": "string"
            },
            {
              "internalType": "string",
              "name": "subject",
              "type": "string"
            },
            {
              "internalType": "string",
              "name": "ipfsHash",
              "type": "string"
            },
            {
              "internalType": "bool",
              "name": "isApproved",
              "type": "bool"
            }
          ],
          "internalType": "struct Student.CertificateRequest[]",
          "name": "",
          "type": "tuple[]"
        }
      ],
      "stateMutability": "view",
      "type": "function",
      "constant": true
    }
  ],
  "bytecode": "0x608060405234801561001057600080fd5b50604051610be4380380610be4833981810160405281019061003291906100cf565b816000806101000a81548173ffffffffffffffffffffffffffffffffffffffff021916908373ffffffffffffffffffffffffffffffffffffffff16021790555080600160006101000a81548173ffffffffffffffffffffffffffffffffffffffff021916908373ffffffffffffffffffffffffffffffffffffffff1602179055505050610154565b6000815190506100c98161013d565b92915050565b600080604083850312156100e257600080fd5b60006100f0858286016100ba565b9250506020610101858286016100ba565b9150509250929050565b60006101168261011d565b9050919050565b600073ffffffffffffffffffffffffffffffffffffffff82169050919050565b6101468161010b565b811461015157600080fd5b50565b610a81806101636000396000f3fe608060405234801561001057600080fd5b506004361061004c5760003560e01c80630c571a0914610051578063779c7ac31461006f578063dfdf5ed11461008d578063fb1a002a146100a9575b600080fd5b6100596100c7565b6040516100669190610807565b60405180910390f35b6100776100ed565b60405161008491906107ec565b60405180910390f35b6100a760048036038101906100a291906104ba565b610111565b005b6100b16101a8565b6040516100be91906107ca565b60405180910390f35b600160009054906101000a900473ffffffffffffffffffffffffffffffffffffffff1681565b60008054906101000a900473ffffffffffffffffffffffffffffffffffffffff1681565b60008054906101000a900473ffffffffffffffffffffffffffffffffffffffff1673ffffffffffffffffffffffffffffffffffffffff1663a038cffc858585856040518563ffffffff1660e01b81526004016101709493929190610770565b600060405180830381600087803b15801561018a57600080fd5b505af115801561019e573d6000803e3d6000fd5b5050505050505050565b6060600160009054906101000a900473ffffffffffffffffffffffffffffffffffffffff1673ffffffffffffffffffffffffffffffffffffffff1663fb1a002a6040518163ffffffff1660e01b815260040160006040518083038186803b15801561021257600080fd5b505afa158015610226573d6000803e3d6000fd5b505050506040513d6000823e3d601f19601f8201168201806040525081019061024f9190610565565b905090565b600061026761026284610853565b610822565b9050808382526020820190508260005b858110156102a7578151850161028d88826103ea565b845260208401935060208301925050600181019050610277565b5050509392505050565b60006102c46102bf8461087f565b610822565b9050828152602081018484840111156102dc57600080fd5b6102e784828561099b565b509392505050565b60006103026102fd8461087f565b610822565b90508281526020810184848401111561031a57600080fd5b6103258482856109aa565b509392505050565b60008135905061033c81610a1d565b92915050565b60008151905061035181610a1d565b92915050565b600082601f83011261036857600080fd5b8151610378848260208601610254565b91505092915050565b60008151905061039081610a34565b92915050565b600082601f8301126103a757600080fd5b81356103b78482602086016102b1565b91505092915050565b600082601f8301126103d157600080fd5b81516103e18482602086016102ef565b91505092915050565b600060a082840312156103fc57600080fd5b61040660a0610822565b9050600061041684828501610342565b600083015250602082015167ffffffffffffffff81111561043657600080fd5b610442848285016103c0565b602083015250604082015167ffffffffffffffff81111561046257600080fd5b61046e848285016103c0565b604083015250606082015167ffffffffffffffff81111561048e57600080fd5b61049a848285016103c0565b60608301525060806104ae84828501610381565b60808301525092915050565b600080600080608085870312156104d057600080fd5b60006104de8782880161032d565b945050602085013567ffffffffffffffff8111156104fb57600080fd5b61050787828801610396565b935050604085013567ffffffffffffffff81111561052457600080fd5b61053087828801610396565b925050606085013567ffffffffffffffff81111561054d57600080fd5b61055987828801610396565b91505092959194509250565b60006020828403121561057757600080fd5b600082015167ffffffffffffffff81111561059157600080fd5b61059d84828501610357565b91505092915050565b60006105b283836106ec565b905092915050565b6105c381610915565b82525050565b6105d281610915565b82525050565b60006105e3826108bf565b6105ed81856108e2565b9350836020820285016105ff856108af565b8060005b8581101561063b578484038952815161061c85826105a6565b9450610627836108d5565b925060208a01995050600181019050610603565b50829750879550505050505092915050565b61065681610927565b82525050565b61066581610953565b82525050565b61067481610977565b82525050565b6000610685826108ca565b61068f81856108f3565b935061069f8185602086016109aa565b6106a881610a0c565b840191505092915050565b60006106be826108ca565b6106c88185610904565b93506106d88185602086016109aa565b6106e181610a0c565b840191505092915050565b600060a08301600083015161070460008601826105ba565b506020830151848203602086015261071c828261067a565b91505060408301518482036040860152610736828261067a565b91505060608301518482036060860152610750828261067a565b9150506080830151610765608086018261064d565b508091505092915050565b600060808201905061078560008301876105c9565b818103602083015261079781866106b3565b905081810360408301526107ab81856106b3565b905081810360608301526107bf81846106b3565b905095945050505050565b600060208201905081810360008301526107e481846105d8565b905092915050565b6000602082019050610801600083018461065c565b92915050565b600060208201905061081c600083018461066b565b92915050565b6000604051905081810181811067ffffffffffffffff82111715610849576108486109dd565b5b8060405250919050565b600067ffffffffffffffff82111561086e5761086d6109dd565b5b602082029050602081019050919050565b600067ffffffffffffffff82111561089a576108996109dd565b5b601f19601f8301169050602081019050919050565b6000819050602082019050919050565b600081519050919050565b600081519050919050565b6000602082019050919050565b600082825260208201905092915050565b600082825260208201905092915050565b600082825260208201905092915050565b600061092082610933565b9050919050565b60008115159050919050565b600073ffffffffffffffffffffffffffffffffffffffff82169050919050565b600061095e82610965565b9050919050565b600061097082610933565b9050919050565b600061098282610989565b9050919050565b600061099482610933565b9050919050565b82818337600083830152505050565b60005b838110156109c85780820151818401526020810190506109ad565b838111156109d7576000848401525b50505050565b7f4e487b7100000000000000000000000000000000000000000000000000000000600052604160045260246000fd5b6000601f19601f8301169050919050565b610a2681610915565b8114610a3157600080fd5b50565b610a3d81610927565b8114610a4857600080fd5b5056fea264697066735822122037a8c45e111c86df57d42eab982363e381c7e145340c1e0bedbb7984d634e5c964736f6c63430008000033",
  "immutableReferences": {},
  "source": "// SPDX-License-Identifier: MIT\npragma solidity ^0.8.0;\n\nimport \"./Certificate.sol\";\nimport \"./Student.sol\";\n\ncontract Verifier {\n    Certificate public certificateContract;\n    Student public studentContract;\n\n    constructor(address _certAddress, address _studentAddress) {\n        certificateContract = Certificate(_certAddress);\n        studentContract = Student(_studentAddress);\n    }\n\n    function issueCertificateToStudent(address student, string memory name, string memory subject, string memory hash) public {\n        certificateContract.addCertificate(student, name, subject, hash);\n    }\n\n    function getAllRequests() public view returns (Student.CertificateRequest[] memory) {\n        return studentContract.getAllRequests();\n    }\n}\n",
  "sourcePath": "/Users/deviprasadreddyp/Desktop/cert-verification/contracts/Verifier.sol",
  "compiler": {
    "name": "solc",
    "version": "0.8.0+commit.c7dfd78e.Emscripten.clang"
  },
  "schemaVersion": "3.4.16",
  "updatedAt": "2025-04-23T16:36:14.100Z",
  "networkType": "ethereum",
  "devdoc": {
    "kind": "dev",
    "methods": {},
    "version": 1
  },
  "userdoc": {
    "kind": "user",
    "methods": {},
    "version": 1
  }
}